{
  "_format": "hh-sol-artifact-1",
  "contractName": "NFT",
  "sourceName": "contracts/MyNFT.sol",
  "abi": [
    {
      "inputs": [],
      "stateMutability": "nonpayable",
      "type": "constructor"
    },
    {
      "anonymous": false,
      "inputs": [
        {
          "indexed": true,
          "internalType": "address",
          "name": "owner",
          "type": "address"
        },
        {
          "indexed": true,
          "internalType": "address",
          "name": "approved",
          "type": "address"
        },
        {
          "indexed": true,
          "internalType": "uint256",
          "name": "tokenId",
          "type": "uint256"
        }
      ],
      "name": "Approval",
      "type": "event"
    },
    {
      "anonymous": false,
      "inputs": [
        {
          "indexed": true,
          "internalType": "address",
          "name": "owner",
          "type": "address"
        },
        {
          "indexed": true,
          "internalType": "address",
          "name": "operator",
          "type": "address"
        },
        {
          "indexed": false,
          "internalType": "bool",
          "name": "approved",
          "type": "bool"
        }
      ],
      "name": "ApprovalForAll",
      "type": "event"
    },
    {
      "anonymous": false,
      "inputs": [
        {
          "indexed": true,
          "internalType": "address",
          "name": "from",
          "type": "address"
        },
        {
          "indexed": true,
          "internalType": "address",
          "name": "to",
          "type": "address"
        },
        {
          "indexed": true,
          "internalType": "uint256",
          "name": "tokenId",
          "type": "uint256"
        }
      ],
      "name": "Transfer",
      "type": "event"
    },
    {
      "inputs": [
        {
          "internalType": "address",
          "name": "to",
          "type": "address"
        },
        {
          "internalType": "uint256",
          "name": "tokenId",
          "type": "uint256"
        }
      ],
      "name": "approve",
      "outputs": [],
      "stateMutability": "nonpayable",
      "type": "function"
    },
    {
      "inputs": [
        {
          "internalType": "address",
          "name": "owner",
          "type": "address"
        }
      ],
      "name": "balanceOf",
      "outputs": [
        {
          "internalType": "uint256",
          "name": "",
          "type": "uint256"
        }
      ],
      "stateMutability": "view",
      "type": "function"
    },
    {
      "inputs": [],
      "name": "baseTokenURI",
      "outputs": [
        {
          "internalType": "string",
          "name": "",
          "type": "string"
        }
      ],
      "stateMutability": "view",
      "type": "function"
    },
    {
      "inputs": [
        {
          "internalType": "uint256",
          "name": "tokenId",
          "type": "uint256"
        }
      ],
      "name": "getApproved",
      "outputs": [
        {
          "internalType": "address",
          "name": "",
          "type": "address"
        }
      ],
      "stateMutability": "view",
      "type": "function"
    },
    {
      "inputs": [
        {
          "internalType": "address",
          "name": "owner",
          "type": "address"
        },
        {
          "internalType": "address",
          "name": "operator",
          "type": "address"
        }
      ],
      "name": "isApprovedForAll",
      "outputs": [
        {
          "internalType": "bool",
          "name": "",
          "type": "bool"
        }
      ],
      "stateMutability": "view",
      "type": "function"
    },
    {
      "inputs": [
        {
          "internalType": "address",
          "name": "recipient",
          "type": "address"
        }
      ],
      "name": "mintTo",
      "outputs": [
        {
          "internalType": "uint256",
          "name": "",
          "type": "uint256"
        }
      ],
      "stateMutability": "nonpayable",
      "type": "function"
    },
    {
      "inputs": [],
      "name": "name",
      "outputs": [
        {
          "internalType": "string",
          "name": "",
          "type": "string"
        }
      ],
      "stateMutability": "view",
      "type": "function"
    },
    {
      "inputs": [
        {
          "internalType": "uint256",
          "name": "tokenId",
          "type": "uint256"
        }
      ],
      "name": "ownerOf",
      "outputs": [
        {
          "internalType": "address",
          "name": "",
          "type": "address"
        }
      ],
      "stateMutability": "view",
      "type": "function"
    },
    {
      "inputs": [
        {
          "internalType": "address",
          "name": "from",
          "type": "address"
        },
        {
          "internalType": "address",
          "name": "to",
          "type": "address"
        },
        {
          "internalType": "uint256",
          "name": "tokenId",
          "type": "uint256"
        }
      ],
      "name": "safeTransferFrom",
      "outputs": [],
      "stateMutability": "nonpayable",
      "type": "function"
    },
    {
      "inputs": [
        {
          "internalType": "address",
          "name": "from",
          "type": "address"
        },
        {
          "internalType": "address",
          "name": "to",
          "type": "address"
        },
        {
          "internalType": "uint256",
          "name": "tokenId",
          "type": "uint256"
        },
        {
          "internalType": "bytes",
          "name": "data",
          "type": "bytes"
        }
      ],
      "name": "safeTransferFrom",
      "outputs": [],
      "stateMutability": "nonpayable",
      "type": "function"
    },
    {
      "inputs": [
        {
          "internalType": "address",
          "name": "operator",
          "type": "address"
        },
        {
          "internalType": "bool",
          "name": "approved",
          "type": "bool"
        }
      ],
      "name": "setApprovalForAll",
      "outputs": [],
      "stateMutability": "nonpayable",
      "type": "function"
    },
    {
      "inputs": [
        {
          "internalType": "string",
          "name": "_baseTokenURI",
          "type": "string"
        }
      ],
      "name": "setBaseTokenURI",
      "outputs": [],
      "stateMutability": "nonpayable",
      "type": "function"
    },
    {
      "inputs": [
        {
          "internalType": "bytes4",
          "name": "interfaceId",
          "type": "bytes4"
        }
      ],
      "name": "supportsInterface",
      "outputs": [
        {
          "internalType": "bool",
          "name": "",
          "type": "bool"
        }
      ],
      "stateMutability": "view",
      "type": "function"
    },
    {
      "inputs": [],
      "name": "symbol",
      "outputs": [
        {
          "internalType": "string",
          "name": "",
          "type": "string"
        }
      ],
      "stateMutability": "view",
      "type": "function"
    },
    {
      "inputs": [
        {
          "internalType": "uint256",
          "name": "tokenId",
          "type": "uint256"
        }
      ],
      "name": "tokenURI",
      "outputs": [
        {
          "internalType": "string",
          "name": "",
          "type": "string"
        }
      ],
      "stateMutability": "view",
      "type": "function"
    },
    {
      "inputs": [
        {
          "internalType": "address",
          "name": "from",
          "type": "address"
        },
        {
          "internalType": "address",
          "name": "to",
          "type": "address"
        },
        {
          "internalType": "uint256",
          "name": "tokenId",
          "type": "uint256"
        }
      ],
      "name": "transferFrom",
      "outputs": [],
      "stateMutability": "nonpayable",
      "type": "function"
    }
  ],
  "bytecode": "0x60806040523480156200001157600080fd5b506040518060400160405280600b81526020017f4e46545475746f7269616c0000000000000000000000000000000000000000008152506040518060400160405280600381526020017f4e4654000000000000000000000000000000000000000000000000000000000081525081600090816200008f919062000345565b508060019081620000a1919062000345565b5050506040518060200160405280600081525060079081620000c4919062000345565b506200042c565b600081519050919050565b7f4e487b7100000000000000000000000000000000000000000000000000000000600052604160045260246000fd5b7f4e487b7100000000000000000000000000000000000000000000000000000000600052602260045260246000fd5b600060028204905060018216806200014d57607f821691505b60208210810362000163576200016262000105565b5b50919050565b60008190508160005260206000209050919050565b60006020601f8301049050919050565b600082821b905092915050565b600060088302620001cd7fffffffffffffffffffffffffffffffffffffffffffffffffffffffffffffffff826200018e565b620001d986836200018e565b95508019841693508086168417925050509392505050565b6000819050919050565b6000819050919050565b600062000226620002206200021a84620001f1565b620001fb565b620001f1565b9050919050565b6000819050919050565b620002428362000205565b6200025a62000251826200022d565b8484546200019b565b825550505050565b600090565b6200027162000262565b6200027e81848462000237565b505050565b5b81811015620002a6576200029a60008262000267565b60018101905062000284565b5050565b601f821115620002f557620002bf8162000169565b620002ca846200017e565b81016020851015620002da578190505b620002f2620002e9856200017e565b83018262000283565b50505b505050565b600082821c905092915050565b60006200031a60001984600802620002fa565b1980831691505092915050565b600062000335838362000307565b9150826002028217905092915050565b6200035082620000cb565b67ffffffffffffffff8111156200036c576200036b620000d6565b5b62000378825462000134565b62000385828285620002aa565b600060209050601f831160018114620003bd5760008415620003a8578287015190505b620003b4858262000327565b86555062000424565b601f198416620003cd8662000169565b60005b82811015620003f757848901518255600182019150602085019450602081019050620003d0565b8683101562000417578489015162000413601f89168262000307565b8355505b6001600288020188555050505b505050505050565b6129ed806200043c6000396000f3fe608060405234801561001057600080fd5b50600436106101005760003560e01c806370a0823111610097578063b88d4fde11610066578063b88d4fde146102bd578063c87b56dd146102d9578063d547cfb714610309578063e985e9c51461032757610100565b806370a0823114610223578063755edd171461025357806395d89b4114610283578063a22cb465146102a157610100565b806323b872dd116100d357806323b872dd1461019f57806330176e13146101bb57806342842e0e146101d75780636352211e146101f357610100565b806301ffc9a71461010557806306fdde0314610135578063081812fc14610153578063095ea7b314610183575b600080fd5b61011f600480360381019061011a9190611811565b610357565b60405161012c9190611859565b60405180910390f35b61013d610439565b60405161014a9190611904565b60405180910390f35b61016d6004803603810190610168919061195c565b6104cb565b60405161017a91906119ca565b60405180910390f35b61019d60048036038101906101989190611a11565b610511565b005b6101b960048036038101906101b49190611a51565b610628565b005b6101d560048036038101906101d09190611bd9565b610688565b005b6101f160048036038101906101ec9190611a51565b61069b565b005b61020d6004803603810190610208919061195c565b6106bb565b60405161021a91906119ca565b60405180910390f35b61023d60048036038101906102389190611c22565b61076c565b60405161024a9190611c5e565b60405180910390f35b61026d60048036038101906102689190611c22565b610823565b60405161027a9190611c5e565b60405180910390f35b61028b610850565b6040516102989190611904565b60405180910390f35b6102bb60048036038101906102b69190611ca5565b6108e2565b005b6102d760048036038101906102d29190611d86565b6108f8565b005b6102f360048036038101906102ee919061195c565b61095a565b6040516103009190611904565b60405180910390f35b6103116109c2565b60405161031e9190611904565b60405180910390f35b610341600480360381019061033c9190611e09565b610a50565b60405161034e9190611859565b60405180910390f35b60007f80ac58cd000000000000000000000000000000000000000000000000000000007bffffffffffffffffffffffffffffffffffffffffffffffffffffffff1916827bffffffffffffffffffffffffffffffffffffffffffffffffffffffff1916148061042257507f5b5e139f000000000000000000000000000000000000000000000000000000007bffffffffffffffffffffffffffffffffffffffffffffffffffffffff1916827bffffffffffffffffffffffffffffffffffffffffffffffffffffffff1916145b80610432575061043182610ae4565b5b9050919050565b60606000805461044890611e78565b80601f016020809104026020016040519081016040528092919081815260200182805461047490611e78565b80156104c15780601f10610496576101008083540402835291602001916104c1565b820191906000526020600020905b8154815290600101906020018083116104a457829003601f168201915b5050505050905090565b60006104d682610b4e565b6004600083815260200190815260200160002060009054906101000a900473ffffffffffffffffffffffffffffffffffffffff169050919050565b600061051c826106bb565b90508073ffffffffffffffffffffffffffffffffffffffff168373ffffffffffffffffffffffffffffffffffffffff160361058c576040517f08c379a000000000000000000000000000000000000000000000000000000000815260040161058390611f1b565b60405180910390fd5b8073ffffffffffffffffffffffffffffffffffffffff166105ab610b99565b73ffffffffffffffffffffffffffffffffffffffff1614806105da57506105d9816105d4610b99565b610a50565b5b610619576040517f08c379a000000000000000000000000000000000000000000000000000000000815260040161061090611fad565b60405180910390fd5b6106238383610ba1565b505050565b610639610633610b99565b82610c5a565b610678576040517f08c379a000000000000000000000000000000000000000000000000000000000815260040161066f9061203f565b60405180910390fd5b610683838383610cef565b505050565b8060079081610697919061220b565b5050565b6106b6838383604051806020016040528060008152506108f8565b505050565b6000806002600084815260200190815260200160002060009054906101000a900473ffffffffffffffffffffffffffffffffffffffff169050600073ffffffffffffffffffffffffffffffffffffffff168173ffffffffffffffffffffffffffffffffffffffff1603610763576040517f08c379a000000000000000000000000000000000000000000000000000000000815260040161075a90612329565b60405180910390fd5b80915050919050565b60008073ffffffffffffffffffffffffffffffffffffffff168273ffffffffffffffffffffffffffffffffffffffff16036107dc576040517f08c379a00000000000000000000000000000000000000000000000000000000081526004016107d3906123bb565b60405180910390fd5b600360008373ffffffffffffffffffffffffffffffffffffffff1673ffffffffffffffffffffffffffffffffffffffff168152602001908152602001600020549050919050565b600061082f6006610f55565b600061083b6006610f6b565b90506108478382610f79565b80915050919050565b60606001805461085f90611e78565b80601f016020809104026020016040519081016040528092919081815260200182805461088b90611e78565b80156108d85780601f106108ad576101008083540402835291602001916108d8565b820191906000526020600020905b8154815290600101906020018083116108bb57829003601f168201915b5050505050905090565b6108f46108ed610b99565b8383610f97565b5050565b610909610903610b99565b83610c5a565b610948576040517f08c379a000000000000000000000000000000000000000000000000000000000815260040161093f9061203f565b60405180910390fd5b61095484848484611103565b50505050565b606061096582610b4e565b600061096f61115f565b9050600081511161098f57604051806020016040528060008152506109ba565b80610999846111f1565b6040516020016109aa929190612417565b6040516020818303038152906040525b915050919050565b600780546109cf90611e78565b80601f01602080910402602001604051908101604052809291908181526020018280546109fb90611e78565b8015610a485780601f10610a1d57610100808354040283529160200191610a48565b820191906000526020600020905b815481529060010190602001808311610a2b57829003601f168201915b505050505081565b6000600560008473ffffffffffffffffffffffffffffffffffffffff1673ffffffffffffffffffffffffffffffffffffffff16815260200190815260200160002060008373ffffffffffffffffffffffffffffffffffffffff1673ffffffffffffffffffffffffffffffffffffffff16815260200190815260200160002060009054906101000a900460ff16905092915050565b60007f01ffc9a7000000000000000000000000000000000000000000000000000000007bffffffffffffffffffffffffffffffffffffffffffffffffffffffff1916827bffffffffffffffffffffffffffffffffffffffffffffffffffffffff1916149050919050565b610b5781611351565b610b96576040517f08c379a0000000000000000000000000000000000000000000000000000000008152600401610b8d90612329565b60405180910390fd5b50565b600033905090565b816004600083815260200190815260200160002060006101000a81548173ffffffffffffffffffffffffffffffffffffffff021916908373ffffffffffffffffffffffffffffffffffffffff160217905550808273ffffffffffffffffffffffffffffffffffffffff16610c14836106bb565b73ffffffffffffffffffffffffffffffffffffffff167f8c5be1e5ebec7d5bd14f71427d1e84f3dd0314c0f7b2291e5b200ac8c7c3b92560405160405180910390a45050565b600080610c66836106bb565b90508073ffffffffffffffffffffffffffffffffffffffff168473ffffffffffffffffffffffffffffffffffffffff161480610ca85750610ca78185610a50565b5b80610ce657508373ffffffffffffffffffffffffffffffffffffffff16610cce846104cb565b73ffffffffffffffffffffffffffffffffffffffff16145b91505092915050565b8273ffffffffffffffffffffffffffffffffffffffff16610d0f826106bb565b73ffffffffffffffffffffffffffffffffffffffff1614610d65576040517f08c379a0000000000000000000000000000000000000000000000000000000008152600401610d5c906124ad565b60405180910390fd5b600073ffffffffffffffffffffffffffffffffffffffff168273ffffffffffffffffffffffffffffffffffffffff1603610dd4576040517f08c379a0000000000000000000000000000000000000000000000000000000008152600401610dcb9061253f565b60405180910390fd5b610ddf8383836113bd565b610dea600082610ba1565b6001600360008573ffffffffffffffffffffffffffffffffffffffff1673ffffffffffffffffffffffffffffffffffffffff1681526020019081526020016000206000828254610e3a919061258e565b925050819055506001600360008473ffffffffffffffffffffffffffffffffffffffff1673ffffffffffffffffffffffffffffffffffffffff1681526020019081526020016000206000828254610e9191906125c2565b92505081905550816002600083815260200190815260200160002060006101000a81548173ffffffffffffffffffffffffffffffffffffffff021916908373ffffffffffffffffffffffffffffffffffffffff160217905550808273ffffffffffffffffffffffffffffffffffffffff168473ffffffffffffffffffffffffffffffffffffffff167fddf252ad1be2c89b69c2b068fc378daa952ba7f163c4a11628f55a4df523b3ef60405160405180910390a4610f508383836113c2565b505050565b6001816000016000828254019250508190555050565b600081600001549050919050565b610f938282604051806020016040528060008152506113c7565b5050565b8173ffffffffffffffffffffffffffffffffffffffff168373ffffffffffffffffffffffffffffffffffffffff1603611005576040517f08c379a0000000000000000000000000000000000000000000000000000000008152600401610ffc90612642565b60405180910390fd5b80600560008573ffffffffffffffffffffffffffffffffffffffff1673ffffffffffffffffffffffffffffffffffffffff16815260200190815260200160002060008473ffffffffffffffffffffffffffffffffffffffff1673ffffffffffffffffffffffffffffffffffffffff16815260200190815260200160002060006101000a81548160ff0219169083151502179055508173ffffffffffffffffffffffffffffffffffffffff168373ffffffffffffffffffffffffffffffffffffffff167f17307eab39ab6107e8899845ad3d59bd9653f200f220920489ca2b5937696c31836040516110f69190611859565b60405180910390a3505050565b61110e848484610cef565b61111a84848484611422565b611159576040517f08c379a0000000000000000000000000000000000000000000000000000000008152600401611150906126d4565b60405180910390fd5b50505050565b60606007805461116e90611e78565b80601f016020809104026020016040519081016040528092919081815260200182805461119a90611e78565b80156111e75780601f106111bc576101008083540402835291602001916111e7565b820191906000526020600020905b8154815290600101906020018083116111ca57829003601f168201915b5050505050905090565b606060008203611238576040518060400160405280600181526020017f3000000000000000000000000000000000000000000000000000000000000000815250905061134c565b600082905060005b6000821461126a578080611253906126f4565b915050600a82611263919061276b565b9150611240565b60008167ffffffffffffffff81111561128657611285611aae565b5b6040519080825280601f01601f1916602001820160405280156112b85781602001600182028036833780820191505090505b5090505b60008514611345576001826112d1919061258e565b9150600a856112e0919061279c565b60306112ec91906125c2565b60f81b818381518110611302576113016127cd565b5b60200101907effffffffffffffffffffffffffffffffffffffffffffffffffffffffffffff1916908160001a905350600a8561133e919061276b565b94506112bc565b8093505050505b919050565b60008073ffffffffffffffffffffffffffffffffffffffff166002600084815260200190815260200160002060009054906101000a900473ffffffffffffffffffffffffffffffffffffffff1673ffffffffffffffffffffffffffffffffffffffff1614159050919050565b505050565b505050565b6113d183836115a9565b6113de6000848484611422565b61141d576040517f08c379a0000000000000000000000000000000000000000000000000000000008152600401611414906126d4565b60405180910390fd5b505050565b60006114438473ffffffffffffffffffffffffffffffffffffffff16611782565b1561159c578373ffffffffffffffffffffffffffffffffffffffff1663150b7a0261146c610b99565b8786866040518563ffffffff1660e01b815260040161148e9493929190612851565b6020604051808303816000875af19250505080156114ca57506040513d601f19601f820116820180604052508101906114c791906128b2565b60015b61154c573d80600081146114fa576040519150601f19603f3d011682016040523d82523d6000602084013e6114ff565b606091505b506000815103611544576040517f08c379a000000000000000000000000000000000000000000000000000000000815260040161153b906126d4565b60405180910390fd5b805181602001fd5b63150b7a0260e01b7bffffffffffffffffffffffffffffffffffffffffffffffffffffffff1916817bffffffffffffffffffffffffffffffffffffffffffffffffffffffff1916149150506115a1565b600190505b949350505050565b600073ffffffffffffffffffffffffffffffffffffffff168273ffffffffffffffffffffffffffffffffffffffff1603611618576040517f08c379a000000000000000000000000000000000000000000000000000000000815260040161160f9061292b565b60405180910390fd5b61162181611351565b15611661576040517f08c379a000000000000000000000000000000000000000000000000000000000815260040161165890612997565b60405180910390fd5b61166d600083836113bd565b6001600360008473ffffffffffffffffffffffffffffffffffffffff1673ffffffffffffffffffffffffffffffffffffffff16815260200190815260200160002060008282546116bd91906125c2565b92505081905550816002600083815260200190815260200160002060006101000a81548173ffffffffffffffffffffffffffffffffffffffff021916908373ffffffffffffffffffffffffffffffffffffffff160217905550808273ffffffffffffffffffffffffffffffffffffffff16600073ffffffffffffffffffffffffffffffffffffffff167fddf252ad1be2c89b69c2b068fc378daa952ba7f163c4a11628f55a4df523b3ef60405160405180910390a461177e600083836113c2565b5050565b6000808273ffffffffffffffffffffffffffffffffffffffff163b119050919050565b6000604051905090565b600080fd5b600080fd5b60007fffffffff0000000000000000000000000000000000000000000000000000000082169050919050565b6117ee816117b9565b81146117f957600080fd5b50565b60008135905061180b816117e5565b92915050565b600060208284031215611827576118266117af565b5b6000611835848285016117fc565b91505092915050565b60008115159050919050565b6118538161183e565b82525050565b600060208201905061186e600083018461184a565b92915050565b600081519050919050565b600082825260208201905092915050565b60005b838110156118ae578082015181840152602081019050611893565b60008484015250505050565b6000601f19601f8301169050919050565b60006118d682611874565b6118e0818561187f565b93506118f0818560208601611890565b6118f9816118ba565b840191505092915050565b6000602082019050818103600083015261191e81846118cb565b905092915050565b6000819050919050565b61193981611926565b811461194457600080fd5b50565b60008135905061195681611930565b92915050565b600060208284031215611972576119716117af565b5b600061198084828501611947565b91505092915050565b600073ffffffffffffffffffffffffffffffffffffffff82169050919050565b60006119b482611989565b9050919050565b6119c4816119a9565b82525050565b60006020820190506119df60008301846119bb565b92915050565b6119ee816119a9565b81146119f957600080fd5b50565b600081359050611a0b816119e5565b92915050565b60008060408385031215611a2857611a276117af565b5b6000611a36858286016119fc565b9250506020611a4785828601611947565b9150509250929050565b600080600060608486031215611a6a57611a696117af565b5b6000611a78868287016119fc565b9350506020611a89868287016119fc565b9250506040611a9a86828701611947565b9150509250925092565b600080fd5b600080fd5b7f4e487b7100000000000000000000000000000000000000000000000000000000600052604160045260246000fd5b611ae6826118ba565b810181811067ffffffffffffffff82111715611b0557611b04611aae565b5b80604052505050565b6000611b186117a5565b9050611b248282611add565b919050565b600067ffffffffffffffff821115611b4457611b43611aae565b5b611b4d826118ba565b9050602081019050919050565b82818337600083830152505050565b6000611b7c611b7784611b29565b611b0e565b905082815260208101848484011115611b9857611b97611aa9565b5b611ba3848285611b5a565b509392505050565b600082601f830112611bc057611bbf611aa4565b5b8135611bd0848260208601611b69565b91505092915050565b600060208284031215611bef57611bee6117af565b5b600082013567ffffffffffffffff811115611c0d57611c0c6117b4565b5b611c1984828501611bab565b91505092915050565b600060208284031215611c3857611c376117af565b5b6000611c46848285016119fc565b91505092915050565b611c5881611926565b82525050565b6000602082019050611c736000830184611c4f565b92915050565b611c828161183e565b8114611c8d57600080fd5b50565b600081359050611c9f81611c79565b92915050565b60008060408385031215611cbc57611cbb6117af565b5b6000611cca858286016119fc565b9250506020611cdb85828601611c90565b9150509250929050565b600067ffffffffffffffff821115611d0057611cff611aae565b5b611d09826118ba565b9050602081019050919050565b6000611d29611d2484611ce5565b611b0e565b905082815260208101848484011115611d4557611d44611aa9565b5b611d50848285611b5a565b509392505050565b600082601f830112611d6d57611d6c611aa4565b5b8135611d7d848260208601611d16565b91505092915050565b60008060008060808587031215611da057611d9f6117af565b5b6000611dae878288016119fc565b9450506020611dbf878288016119fc565b9350506040611dd087828801611947565b925050606085013567ffffffffffffffff811115611df157611df06117b4565b5b611dfd87828801611d58565b91505092959194509250565b60008060408385031215611e2057611e1f6117af565b5b6000611e2e858286016119fc565b9250506020611e3f858286016119fc565b9150509250929050565b7f4e487b7100000000000000000000000000000000000000000000000000000000600052602260045260246000fd5b60006002820490506001821680611e9057607f821691505b602082108103611ea357611ea2611e49565b5b50919050565b7f4552433732313a20617070726f76616c20746f2063757272656e74206f776e6560008201527f7200000000000000000000000000000000000000000000000000000000000000602082015250565b6000611f0560218361187f565b9150611f1082611ea9565b604082019050919050565b60006020820190508181036000830152611f3481611ef8565b9050919050565b7f4552433732313a20617070726f76652063616c6c6572206973206e6f7420746f60008201527f6b656e206f776e6572206e6f7220617070726f76656420666f7220616c6c0000602082015250565b6000611f97603e8361187f565b9150611fa282611f3b565b604082019050919050565b60006020820190508181036000830152611fc681611f8a565b9050919050565b7f4552433732313a2063616c6c6572206973206e6f7420746f6b656e206f776e6560008201527f72206e6f7220617070726f766564000000000000000000000000000000000000602082015250565b6000612029602e8361187f565b915061203482611fcd565b604082019050919050565b600060208201905081810360008301526120588161201c565b9050919050565b60008190508160005260206000209050919050565b60006020601f8301049050919050565b600082821b905092915050565b6000600883026120c17fffffffffffffffffffffffffffffffffffffffffffffffffffffffffffffffff82612084565b6120cb8683612084565b95508019841693508086168417925050509392505050565b6000819050919050565b60006121086121036120fe84611926565b6120e3565b611926565b9050919050565b6000819050919050565b612122836120ed565b61213661212e8261210f565b848454612091565b825550505050565b600090565b61214b61213e565b612156818484612119565b505050565b5b8181101561217a5761216f600082612143565b60018101905061215c565b5050565b601f8211156121bf576121908161205f565b61219984612074565b810160208510156121a8578190505b6121bc6121b485612074565b83018261215b565b50505b505050565b600082821c905092915050565b60006121e2600019846008026121c4565b1980831691505092915050565b60006121fb83836121d1565b9150826002028217905092915050565b61221482611874565b67ffffffffffffffff81111561222d5761222c611aae565b5b6122378254611e78565b61224282828561217e565b600060209050601f8311600181146122755760008415612263578287015190505b61226d85826121ef565b8655506122d5565b601f1984166122838661205f565b60005b828110156122ab57848901518255600182019150602085019450602081019050612286565b868310156122c857848901516122c4601f8916826121d1565b8355505b6001600288020188555050505b505050505050565b7f4552433732313a20696e76616c696420746f6b656e2049440000000000000000600082015250565b600061231360188361187f565b915061231e826122dd565b602082019050919050565b6000602082019050818103600083015261234281612306565b9050919050565b7f4552433732313a2061646472657373207a65726f206973206e6f74206120766160008201527f6c6964206f776e65720000000000000000000000000000000000000000000000602082015250565b60006123a560298361187f565b91506123b082612349565b604082019050919050565b600060208201905081810360008301526123d481612398565b9050919050565b600081905092915050565b60006123f182611874565b6123fb81856123db565b935061240b818560208601611890565b80840191505092915050565b600061242382856123e6565b915061242f82846123e6565b91508190509392505050565b7f4552433732313a207472616e736665722066726f6d20696e636f72726563742060008201527f6f776e6572000000000000000000000000000000000000000000000000000000602082015250565b600061249760258361187f565b91506124a28261243b565b604082019050919050565b600060208201905081810360008301526124c68161248a565b9050919050565b7f4552433732313a207472616e7366657220746f20746865207a65726f2061646460008201527f7265737300000000000000000000000000000000000000000000000000000000602082015250565b600061252960248361187f565b9150612534826124cd565b604082019050919050565b600060208201905081810360008301526125588161251c565b9050919050565b7f4e487b7100000000000000000000000000000000000000000000000000000000600052601160045260246000fd5b600061259982611926565b91506125a483611926565b92508282039050818111156125bc576125bb61255f565b5b92915050565b60006125cd82611926565b91506125d883611926565b92508282019050808211156125f0576125ef61255f565b5b92915050565b7f4552433732313a20617070726f766520746f2063616c6c657200000000000000600082015250565b600061262c60198361187f565b9150612637826125f6565b602082019050919050565b6000602082019050818103600083015261265b8161261f565b9050919050565b7f4552433732313a207472616e7366657220746f206e6f6e20455243373231526560008201527f63656976657220696d706c656d656e7465720000000000000000000000000000602082015250565b60006126be60328361187f565b91506126c982612662565b604082019050919050565b600060208201905081810360008301526126ed816126b1565b9050919050565b60006126ff82611926565b91507fffffffffffffffffffffffffffffffffffffffffffffffffffffffffffffffff82036127315761273061255f565b5b600182019050919050565b7f4e487b7100000000000000000000000000000000000000000000000000000000600052601260045260246000fd5b600061277682611926565b915061278183611926565b9250826127915761279061273c565b5b828204905092915050565b60006127a782611926565b91506127b283611926565b9250826127c2576127c161273c565b5b828206905092915050565b7f4e487b7100000000000000000000000000000000000000000000000000000000600052603260045260246000fd5b600081519050919050565b600082825260208201905092915050565b6000612823826127fc565b61282d8185612807565b935061283d818560208601611890565b612846816118ba565b840191505092915050565b600060808201905061286660008301876119bb565b61287360208301866119bb565b6128806040830185611c4f565b81810360608301526128928184612818565b905095945050505050565b6000815190506128ac816117e5565b92915050565b6000602082840312156128c8576128c76117af565b5b60006128d68482850161289d565b91505092915050565b7f4552433732313a206d696e7420746f20746865207a65726f2061646472657373600082015250565b600061291560208361187f565b9150612920826128df565b602082019050919050565b6000602082019050818103600083015261294481612908565b9050919050565b7f4552433732313a20746f6b656e20616c7265616479206d696e74656400000000600082015250565b6000612981601c8361187f565b915061298c8261294b565b602082019050919050565b600060208201905081810360008301526129b081612974565b905091905056fea264697066735822122008cd6040d746f5ad846e04c37c846d9cdec122cad71c424e08a20adc92d22f8d64736f6c63430008110033",
  "linkReferences": {},
  "deployedLinkReferences": {}
}